{
  "contractName": "ERC20_CappedAToken",
  "abi": [
    {
      "inputs": [],
      "stateMutability": "nonpayable",
      "type": "constructor"
    },
    {
      "anonymous": false,
      "inputs": [
        {
          "indexed": true,
          "internalType": "address",
          "name": "owner",
          "type": "address"
        },
        {
          "indexed": true,
          "internalType": "address",
          "name": "spender",
          "type": "address"
        },
        {
          "indexed": false,
          "internalType": "uint256",
          "name": "value",
          "type": "uint256"
        }
      ],
      "name": "Approval",
      "type": "event"
    },
    {
      "anonymous": false,
      "inputs": [
        {
          "indexed": true,
          "internalType": "address",
          "name": "from",
          "type": "address"
        },
        {
          "indexed": true,
          "internalType": "address",
          "name": "to",
          "type": "address"
        },
        {
          "indexed": false,
          "internalType": "uint256",
          "name": "value",
          "type": "uint256"
        }
      ],
      "name": "Transfer",
      "type": "event"
    },
    {
      "anonymous": false,
      "inputs": [
        {
          "indexed": false,
          "internalType": "bool",
          "name": "success",
          "type": "bool"
        },
        {
          "indexed": false,
          "internalType": "uint256",
          "name": "amount",
          "type": "uint256"
        }
      ],
      "name": "tokensMinted",
      "type": "event"
    },
    {
      "inputs": [],
      "name": "decimals",
      "outputs": [
        {
          "internalType": "uint256",
          "name": "",
          "type": "uint256"
        }
      ],
      "stateMutability": "view",
      "type": "function",
      "constant": true
    },
    {
      "inputs": [],
      "name": "name",
      "outputs": [
        {
          "internalType": "string",
          "name": "",
          "type": "string"
        }
      ],
      "stateMutability": "view",
      "type": "function",
      "constant": true
    },
    {
      "inputs": [],
      "name": "owner",
      "outputs": [
        {
          "internalType": "address",
          "name": "",
          "type": "address"
        }
      ],
      "stateMutability": "view",
      "type": "function",
      "constant": true
    },
    {
      "inputs": [],
      "name": "symbol",
      "outputs": [
        {
          "internalType": "string",
          "name": "",
          "type": "string"
        }
      ],
      "stateMutability": "view",
      "type": "function",
      "constant": true
    },
    {
      "inputs": [],
      "name": "totalSupply",
      "outputs": [
        {
          "internalType": "uint256",
          "name": "",
          "type": "uint256"
        }
      ],
      "stateMutability": "view",
      "type": "function",
      "constant": true
    },
    {
      "inputs": [
        {
          "internalType": "address",
          "name": "account",
          "type": "address"
        }
      ],
      "name": "balanceOf",
      "outputs": [
        {
          "internalType": "uint256",
          "name": "",
          "type": "uint256"
        }
      ],
      "stateMutability": "view",
      "type": "function",
      "constant": true
    },
    {
      "inputs": [
        {
          "internalType": "address",
          "name": "recipient",
          "type": "address"
        },
        {
          "internalType": "uint256",
          "name": "amount",
          "type": "uint256"
        }
      ],
      "name": "transfer",
      "outputs": [
        {
          "internalType": "bool",
          "name": "",
          "type": "bool"
        }
      ],
      "stateMutability": "nonpayable",
      "type": "function"
    },
    {
      "inputs": [
        {
          "internalType": "address",
          "name": "tokenOwner",
          "type": "address"
        },
        {
          "internalType": "address",
          "name": "spender",
          "type": "address"
        }
      ],
      "name": "allowance",
      "outputs": [
        {
          "internalType": "uint256",
          "name": "",
          "type": "uint256"
        }
      ],
      "stateMutability": "view",
      "type": "function",
      "constant": true
    },
    {
      "inputs": [
        {
          "internalType": "address",
          "name": "spender",
          "type": "address"
        },
        {
          "internalType": "uint256",
          "name": "amount",
          "type": "uint256"
        }
      ],
      "name": "approve",
      "outputs": [
        {
          "internalType": "bool",
          "name": "",
          "type": "bool"
        }
      ],
      "stateMutability": "nonpayable",
      "type": "function"
    },
    {
      "inputs": [
        {
          "internalType": "address",
          "name": "tokenOwner",
          "type": "address"
        },
        {
          "internalType": "address",
          "name": "recipient",
          "type": "address"
        },
        {
          "internalType": "uint256",
          "name": "amount",
          "type": "uint256"
        }
      ],
      "name": "transferFrom",
      "outputs": [
        {
          "internalType": "bool",
          "name": "",
          "type": "bool"
        }
      ],
      "stateMutability": "nonpayable",
      "type": "function"
    },
    {
      "inputs": [
        {
          "internalType": "uint256",
          "name": "amount",
          "type": "uint256"
        }
      ],
      "name": "mint",
      "outputs": [
        {
          "internalType": "bool",
          "name": "",
          "type": "bool"
        }
      ],
      "stateMutability": "nonpayable",
      "type": "function"
    }
  ],
  "bytecode": "0x60806040523480156200001157600080fd5b506040518060400160405280601281526020017f45524332305f43617070656441546f6b656e0000000000000000000000000000815250600590805190602001906200005f9291906200023d565b506040518060400160405280600981526020017f432d412d546f6b656e000000000000000000000000000000000000000000000081525060069080519060200190620000ad9291906200023d565b50601260078190555033600460006101000a81548173ffffffffffffffffffffffffffffffffffffffff021916908373ffffffffffffffffffffffffffffffffffffffff160217905550600754600a62000108919062000376565b621e8480620001189190620004b3565b600381905550600754600a6200012f919062000376565b620f42406200013f9190620004b3565b600281905550600254600080600460009054906101000a900473ffffffffffffffffffffffffffffffffffffffff1673ffffffffffffffffffffffffffffffffffffffff1673ffffffffffffffffffffffffffffffffffffffff16815260200190815260200160002081905550600460009054906101000a900473ffffffffffffffffffffffffffffffffffffffff1673ffffffffffffffffffffffffffffffffffffffff163073ffffffffffffffffffffffffffffffffffffffff167fddf252ad1be2c89b69c2b068fc378daa952ba7f163c4a11628f55a4df523b3ef6002546040516200022f9190620002fe565b60405180910390a3620005bf565b8280546200024b906200051e565b90600052602060002090601f0160209004810192826200026f5760008555620002bb565b82601f106200028a57805160ff1916838001178555620002bb565b82800160010185558215620002bb579182015b82811115620002ba5782518255916020019190600101906200029d565b5b509050620002ca9190620002ce565b5090565b5b80821115620002e9576000816000905550600101620002cf565b5090565b620002f88162000514565b82525050565b6000602082019050620003156000830184620002ed565b92915050565b6000808291508390505b60018511156200036d5780860481111562000345576200034462000554565b5b6001851615620003555780820291505b80810290506200036585620005b2565b945062000325565b94509492505050565b6000620003838262000514565b9150620003908362000514565b9250620003bf7fffffffffffffffffffffffffffffffffffffffffffffffffffffffffffffffff8484620003c7565b905092915050565b600082620003d95760019050620004ac565b81620003e95760009050620004ac565b81600181146200040257600281146200040d5762000443565b6001915050620004ac565b60ff84111562000422576200042162000554565b5b8360020a9150848211156200043c576200043b62000554565b5b50620004ac565b5060208310610133831016604e8410600b84101617156200047d5782820a90508381111562000477576200047662000554565b5b620004ac565b6200048c84848460016200031b565b92509050818404811115620004a657620004a562000554565b5b81810290505b9392505050565b6000620004c08262000514565b9150620004cd8362000514565b9250817fffffffffffffffffffffffffffffffffffffffffffffffffffffffffffffffff048311821515161562000509576200050862000554565b5b828202905092915050565b6000819050919050565b600060028204905060018216806200053757607f821691505b602082108114156200054e576200054d62000583565b5b50919050565b7f4e487b7100000000000000000000000000000000000000000000000000000000600052601160045260246000fd5b7f4e487b7100000000000000000000000000000000000000000000000000000000600052602260045260246000fd5b60008160011c9050919050565b61188780620005cf6000396000f3fe608060405234801561001057600080fd5b50600436106100a95760003560e01c806370a082311161007157806370a08231146101685780638da5cb5b1461019857806395d89b41146101b6578063a0712d68146101d4578063a9059cbb14610204578063dd62ed3e14610234576100a9565b806306fdde03146100ae578063095ea7b3146100cc57806318160ddd146100fc57806323b872dd1461011a578063313ce5671461014a575b600080fd5b6100b6610264565b6040516100c39190611504565b60405180910390f35b6100e660048036038101906100e19190611044565b6102f2565b6040516100f391906114c0565b60405180910390f35b6101046104c9565b6040516101119190611646565b60405180910390f35b610134600480360381019061012f9190610ff5565b6104d3565b60405161014191906114c0565b60405180910390f35b61015261081a565b60405161015f9190611646565b60405180910390f35b610182600480360381019061017d9190610f90565b610820565b60405161018f9190611646565b60405180910390f35b6101a0610868565b6040516101ad91906114a5565b60405180910390f35b6101be61088e565b6040516101cb9190611504565b60405180910390f35b6101ee60048036038101906101e99190611080565b61091c565b6040516101fb91906114c0565b60405180910390f35b61021e60048036038101906102199190611044565b610bf1565b60405161022b91906114c0565b60405180910390f35b61024e60048036038101906102499190610fb9565b610edf565b60405161025b9190611646565b60405180910390f35b6005805461027190611782565b80601f016020809104026020016040519081016040528092919081815260200182805461029d90611782565b80156102ea5780601f106102bf576101008083540402835291602001916102ea565b820191906000526020600020905b8154815290600101906020018083116102cd57829003601f168201915b505050505081565b600080339050600073ffffffffffffffffffffffffffffffffffffffff168173ffffffffffffffffffffffffffffffffffffffff161415610368576040517f08c379a000000000000000000000000000000000000000000000000000000000815260040161035f906115e6565b60405180910390fd5b600073ffffffffffffffffffffffffffffffffffffffff168473ffffffffffffffffffffffffffffffffffffffff1614156103d8576040517f08c379a00000000000000000000000000000000000000000000000000000000081526004016103cf906115a6565b60405180910390fd5b82600160008373ffffffffffffffffffffffffffffffffffffffff1673ffffffffffffffffffffffffffffffffffffffff16815260200190815260200160002060008673ffffffffffffffffffffffffffffffffffffffff1673ffffffffffffffffffffffffffffffffffffffff168152602001908152602001600020819055508373ffffffffffffffffffffffffffffffffffffffff168173ffffffffffffffffffffffffffffffffffffffff167f8c5be1e5ebec7d5bd14f71427d1e84f3dd0314c0f7b2291e5b200ac8c7c3b925856040516104b69190611646565b60405180910390a3600191505092915050565b6000600254905090565b6000803390506000600160008773ffffffffffffffffffffffffffffffffffffffff1673ffffffffffffffffffffffffffffffffffffffff16815260200190815260200160002060008373ffffffffffffffffffffffffffffffffffffffff1673ffffffffffffffffffffffffffffffffffffffff16815260200190815260200160002054905083811161059c576040517f08c379a000000000000000000000000000000000000000000000000000000000815260040161059390611566565b60405180910390fd5b83816105a891906116d3565b9050836000808873ffffffffffffffffffffffffffffffffffffffff1673ffffffffffffffffffffffffffffffffffffffff168152602001908152602001600020546105f491906116d3565b6000808873ffffffffffffffffffffffffffffffffffffffff1673ffffffffffffffffffffffffffffffffffffffff16815260200190815260200160002081905550836000808773ffffffffffffffffffffffffffffffffffffffff1673ffffffffffffffffffffffffffffffffffffffff16815260200190815260200160002054610680919061167d565b6000808773ffffffffffffffffffffffffffffffffffffffff1673ffffffffffffffffffffffffffffffffffffffff168152602001908152602001600020819055508473ffffffffffffffffffffffffffffffffffffffff168673ffffffffffffffffffffffffffffffffffffffff167fddf252ad1be2c89b69c2b068fc378daa952ba7f163c4a11628f55a4df523b3ef8660405161071f9190611646565b60405180910390a380600160008873ffffffffffffffffffffffffffffffffffffffff1673ffffffffffffffffffffffffffffffffffffffff16815260200190815260200160002060008473ffffffffffffffffffffffffffffffffffffffff1673ffffffffffffffffffffffffffffffffffffffff168152602001908152602001600020819055508173ffffffffffffffffffffffffffffffffffffffff168673ffffffffffffffffffffffffffffffffffffffff167f8c5be1e5ebec7d5bd14f71427d1e84f3dd0314c0f7b2291e5b200ac8c7c3b925866040516108059190611646565b60405180910390a36001925050509392505050565b60075481565b60008060008373ffffffffffffffffffffffffffffffffffffffff1673ffffffffffffffffffffffffffffffffffffffff168152602001908152602001600020549050919050565b600460009054906101000a900473ffffffffffffffffffffffffffffffffffffffff1681565b6006805461089b90611782565b80601f01602080910402602001604051908101604052809291908181526020018280546108c790611782565b80156109145780601f106108e957610100808354040283529160200191610914565b820191906000526020600020905b8154815290600101906020018083116108f757829003601f168201915b505050505081565b6000600460009054906101000a900473ffffffffffffffffffffffffffffffffffffffff1673ffffffffffffffffffffffffffffffffffffffff163373ffffffffffffffffffffffffffffffffffffffff16146109ae576040517f08c379a00000000000000000000000000000000000000000000000000000000081526004016109a5906115c6565b60405180910390fd5b600082116109f1576040517f08c379a00000000000000000000000000000000000000000000000000000000081526004016109e890611546565b60405180910390fd5b60035482600254610a02919061167d565b1115610a43576040517f08c379a0000000000000000000000000000000000000000000000000000000008152600401610a3a90611606565b60405180910390fd5b81600080600460009054906101000a900473ffffffffffffffffffffffffffffffffffffffff1673ffffffffffffffffffffffffffffffffffffffff1673ffffffffffffffffffffffffffffffffffffffff16815260200190815260200160002054610aaf919061167d565b600080600460009054906101000a900473ffffffffffffffffffffffffffffffffffffffff1673ffffffffffffffffffffffffffffffffffffffff1673ffffffffffffffffffffffffffffffffffffffff1681526020019081526020016000208190555081600254610b21919061167d565b6002819055507f9f47adef424a0ce7c3f125c752130ab1783e453a773b1af8911eb9040ee46ac4600183604051610b599291906114db565b60405180910390a1600460009054906101000a900473ffffffffffffffffffffffffffffffffffffffff1673ffffffffffffffffffffffffffffffffffffffff163073ffffffffffffffffffffffffffffffffffffffff167fddf252ad1be2c89b69c2b068fc378daa952ba7f163c4a11628f55a4df523b3ef84604051610be09190611646565b60405180910390a360019050919050565b600080339050600073ffffffffffffffffffffffffffffffffffffffff168173ffffffffffffffffffffffffffffffffffffffff161415610c67576040517f08c379a0000000000000000000000000000000000000000000000000000000008152600401610c5e90611626565b60405180910390fd5b600073ffffffffffffffffffffffffffffffffffffffff168473ffffffffffffffffffffffffffffffffffffffff161415610cd7576040517f08c379a0000000000000000000000000000000000000000000000000000000008152600401610cce90611586565b60405180910390fd5b826000808373ffffffffffffffffffffffffffffffffffffffff1673ffffffffffffffffffffffffffffffffffffffff1681526020019081526020016000205411610d57576040517f08c379a0000000000000000000000000000000000000000000000000000000008152600401610d4e90611526565b60405180910390fd5b826000808373ffffffffffffffffffffffffffffffffffffffff1673ffffffffffffffffffffffffffffffffffffffff16815260200190815260200160002054610da191906116d3565b6000808373ffffffffffffffffffffffffffffffffffffffff1673ffffffffffffffffffffffffffffffffffffffff16815260200190815260200160002081905550826000808673ffffffffffffffffffffffffffffffffffffffff1673ffffffffffffffffffffffffffffffffffffffff16815260200190815260200160002054610e2d919061167d565b6000808673ffffffffffffffffffffffffffffffffffffffff1673ffffffffffffffffffffffffffffffffffffffff168152602001908152602001600020819055508373ffffffffffffffffffffffffffffffffffffffff168173ffffffffffffffffffffffffffffffffffffffff167fddf252ad1be2c89b69c2b068fc378daa952ba7f163c4a11628f55a4df523b3ef85604051610ecc9190611646565b60405180910390a3600191505092915050565b6000600160008473ffffffffffffffffffffffffffffffffffffffff1673ffffffffffffffffffffffffffffffffffffffff16815260200190815260200160002060008373ffffffffffffffffffffffffffffffffffffffff1673ffffffffffffffffffffffffffffffffffffffff16815260200190815260200160002054905092915050565b600081359050610f7581611823565b92915050565b600081359050610f8a8161183a565b92915050565b600060208284031215610fa257600080fd5b6000610fb084828501610f66565b91505092915050565b60008060408385031215610fcc57600080fd5b6000610fda85828601610f66565b9250506020610feb85828601610f66565b9150509250929050565b60008060006060848603121561100a57600080fd5b600061101886828701610f66565b935050602061102986828701610f66565b925050604061103a86828701610f7b565b9150509250925092565b6000806040838503121561105757600080fd5b600061106585828601610f66565b925050602061107685828601610f7b565b9150509250929050565b60006020828403121561109257600080fd5b60006110a084828501610f7b565b91505092915050565b6110b281611707565b82525050565b6110c181611719565b82525050565b60006110d282611661565b6110dc818561166c565b93506110ec81856020860161174f565b6110f581611812565b840191505092915050565b600061110d602a8361166c565b91507f432d412d546f6b656e3a207472616e7366657220616d6f756e7420657863656560008301527f64732062616c616e6365000000000000000000000000000000000000000000006020830152604082019050919050565b600061117360208361166c565b91507f432d412d546f6b656e3a416d6f756e742073686f756c642062652076616c69646000830152602082019050919050565b60006111b3602c8361166c565b91507f432d412d546f6b656e3a207472616e7366657220616d6f756e7420657863656560008301527f647320616c6c6f77616e636500000000000000000000000000000000000000006020830152604082019050919050565b600061121960278361166c565b91507f432d412d546f6b656e3a207472616e7366657220746f20746865207a65726f2060008301527f61646472657373000000000000000000000000000000000000000000000000006020830152604082019050919050565b600061127f60268361166c565b91507f432d412d546f6b656e3a20617070726f766520746f20746865207a65726f206160008301527f64647265737300000000000000000000000000000000000000000000000000006020830152604082019050919050565b60006112e560238361166c565b91507f432d412d546f6b656e3a204f6e6c7920546f6b656e206f776e657220616c6c6f60008301527f77656400000000000000000000000000000000000000000000000000000000006020830152604082019050919050565b600061134b60288361166c565b91507f432d412d546f6b656e3a20617070726f76652066726f6d20746865207a65726f60008301527f20616464726573730000000000000000000000000000000000000000000000006020830152604082019050919050565b60006113b160478361166c565b91507f432d412d546f6b656e3a546865206d696e74656420746f6b656e2073686f756c60008301527f64206e6f742062652065786365656465642066726f6d2074686520436170706560208301527f64206c696d6974000000000000000000000000000000000000000000000000006040830152606082019050919050565b600061143d60298361166c565b91507f432d412d546f6b656e3a207472616e736665722066726f6d20746865207a657260008301527f6f206164647265737300000000000000000000000000000000000000000000006020830152604082019050919050565b61149f81611745565b82525050565b60006020820190506114ba60008301846110a9565b92915050565b60006020820190506114d560008301846110b8565b92915050565b60006040820190506114f060008301856110b8565b6114fd6020830184611496565b9392505050565b6000602082019050818103600083015261151e81846110c7565b905092915050565b6000602082019050818103600083015261153f81611100565b9050919050565b6000602082019050818103600083015261155f81611166565b9050919050565b6000602082019050818103600083015261157f816111a6565b9050919050565b6000602082019050818103600083015261159f8161120c565b9050919050565b600060208201905081810360008301526115bf81611272565b9050919050565b600060208201905081810360008301526115df816112d8565b9050919050565b600060208201905081810360008301526115ff8161133e565b9050919050565b6000602082019050818103600083015261161f816113a4565b9050919050565b6000602082019050818103600083015261163f81611430565b9050919050565b600060208201905061165b6000830184611496565b92915050565b600081519050919050565b600082825260208201905092915050565b600061168882611745565b915061169383611745565b9250827fffffffffffffffffffffffffffffffffffffffffffffffffffffffffffffffff038211156116c8576116c76117b4565b5b828201905092915050565b60006116de82611745565b91506116e983611745565b9250828210156116fc576116fb6117b4565b5b828203905092915050565b600061171282611725565b9050919050565b60008115159050919050565b600073ffffffffffffffffffffffffffffffffffffffff82169050919050565b6000819050919050565b60005b8381101561176d578082015181840152602081019050611752565b8381111561177c576000848401525b50505050565b6000600282049050600182168061179a57607f821691505b602082108114156117ae576117ad6117e3565b5b50919050565b7f4e487b7100000000000000000000000000000000000000000000000000000000600052601160045260246000fd5b7f4e487b7100000000000000000000000000000000000000000000000000000000600052602260045260246000fd5b6000601f19601f8301169050919050565b61182c81611707565b811461183757600080fd5b50565b61184381611745565b811461184e57600080fd5b5056fea26469706673582212200e86abaee64f4915128c660e3e1de4efd8353f3969eca2f956dfe4bddb34188264736f6c63430008000033",
  "immutableReferences": {},
  "source": "// SPDX-License-Identifier: MIT\r\n// Assignment#3B-1_ERC20_CappedToken, submitted by PIAIC114977 \r\npragma solidity ^0.8.0;\r\n\r\nimport \"./IERC20.sol\";\r\n\r\ncontract ERC20_CappedAToken is IERC20{\r\n    //mapping to hold balances against EOA accounts\r\n    mapping (address => uint256) private _balances;\r\n\r\n    //mapping to hold approved allowance of token to certain address\r\n    //       Owner               Spender    allowance\r\n    mapping (address => mapping (address => uint256)) private _allowances;\r\n \r\n\r\n    //the amount of tokens in existence\r\n    uint256 private _totalSupply;\r\n    \r\n    uint256 private _cap;\r\n\r\n    //owner\r\n    address public owner;\r\n    \r\n    string public name;\r\n    string public symbol;\r\n    uint public decimals;\r\n    \r\n    // events\r\n    event tokensMinted(bool success, uint256 amount);\r\n    \r\n    // modifier for owner transctions only\r\n    modifier ownerOnly(){\r\n        require(msg.sender == owner, \"C-A-Token: Only Token owner allowed\");\r\n        _;\r\n    }\r\n\r\n    constructor () {\r\n        name = \"ERC20_CappedAToken\";\r\n        symbol = \"C-A-Token\";\r\n        decimals = 18;  //1  - 1000 PKR 1 = 100 Paisa 2 decimal\r\n        owner = msg.sender;\r\n        _cap = 2000000 * 10**decimals;\r\n        \r\n        //1 million tokens to be generated\r\n        _totalSupply = 1000000 * 10**decimals; //exponenctial farmola\r\n        //transfer total supply to owner\r\n        _balances[owner] = _totalSupply;\r\n        \r\n        //fire an event on transfer of tokens\r\n        emit Transfer(address(this),owner,_totalSupply);\r\n     }\r\n   \r\n    /**\r\n     * @dev See {IERC20-totalSupply}.\r\n     */\r\n    function totalSupply() public view override returns (uint256) {\r\n        return _totalSupply;\r\n    }\r\n\r\n    /**\r\n     * @dev See {IERC20-balanceOf}.\r\n     */\r\n    function balanceOf(address account) public view override returns (uint256) {\r\n        return _balances[account];\r\n    }\r\n\r\n    /**\r\n     * @dev See {IERC20-transfer}.\r\n     *\r\n     * Requirements:\r\n     *\r\n     * - `recipient` cannot be the zero address.\r\n     * - the caller must have a balance of at least `amount`.\r\n     */\r\n    function transfer(address recipient, uint256 amount) public virtual override returns (bool) {\r\n        address sender = msg.sender;\r\n        require(sender != address(0), \"C-A-Token: transfer from the zero address\");\r\n        require(recipient != address(0), \"C-A-Token: transfer to the zero address\");\r\n        require(_balances[sender] > amount,\"C-A-Token: transfer amount exceeds balance\");\r\n\r\n        //decrease the balance of token sender account\r\n        _balances[sender] = _balances[sender] - amount;\r\n        \r\n        //increase the balance of token recipient account\r\n        _balances[recipient] = _balances[recipient] + amount;\r\n\r\n        emit Transfer(sender, recipient, amount);\r\n        return true;\r\n    }\r\n\r\n    /**\r\n     * @dev See {IERC20-allowance}.\r\n     */\r\n    function allowance(address tokenOwner, address spender) public view virtual override returns (uint256) {\r\n        return _allowances[tokenOwner][spender]; //return allowed amount\r\n    }\r\n\r\n    /**\r\n     * @dev See {IERC20-approve}.\r\n     *\r\n     * Requirements:\r\n     *\r\n     * - `spender` cannot be the zero address.\r\n     */\r\n    function approve(address spender, uint256 amount) public virtual override returns (bool) {\r\n        address tokenOwner = msg.sender;\r\n        require(tokenOwner != address(0), \"C-A-Token: approve from the zero address\");\r\n        require(spender != address(0), \"C-A-Token: approve to the zero address\");\r\n        \r\n        _allowances[tokenOwner][spender] = amount;\r\n        \r\n        emit Approval(tokenOwner, spender, amount);\r\n        return true;\r\n    }\r\n\r\n    /**\r\n     * @dev See {IERC20-transferFrom}.\r\n     *\r\n     * Emits an {Approval} event indicating the updated allowance. This is not\r\n     * required by the EIP. See the note at the beginning of {ERC20};\r\n     *\r\n     * Requirements:\r\n     * - `sender` and `recipient` cannot be the zero address.\r\n     * - `sender` must have a balance of at least `amount`.\r\n     * - the caller must have allowance for ``sender``'s tokens of at least\r\n     * `amount`.\r\n     */\r\n    function transferFrom(address tokenOwner, address recipient, uint256 amount) public virtual override returns (bool) {\r\n        address spender = msg.sender;\r\n        uint256 _allowance = _allowances[tokenOwner][spender]; //how much allowed\r\n        require(_allowance > amount, \"C-A-Token: transfer amount exceeds allowance\");\r\n        \r\n        //deducting allowance\r\n        _allowance = _allowance - amount;\r\n        \r\n        //--- start transfer execution -- \r\n        \r\n        //owner decrease balance\r\n        _balances[tokenOwner] =_balances[tokenOwner] - amount; \r\n        \r\n        //transfer token to recipient;\r\n        _balances[recipient] = _balances[recipient] + amount;\r\n        \r\n        emit Transfer(tokenOwner, recipient, amount);\r\n        //-- end transfer execution--\r\n        \r\n        //decrease the approval amount;\r\n        _allowances[tokenOwner][spender] = _allowance;\r\n        \r\n        emit Approval(tokenOwner, spender, amount);\r\n        \r\n        return true;\r\n    }\r\n    \r\n    /**\r\n     * This function will allow owner to Mint more tokens and check that total supply doesnot exceeds the capped limit\r\n     * \r\n     * Requirements:\r\n     * - the caller must be Owner of Contract\r\n     * - amount should be valid incremental value.\r\n     */\r\n    \r\n    function mint(uint256 amount) public ownerOnly returns(bool){\r\n        require(amount > 0, \"C-A-Token:Amount should be valid\");\r\n        require(_totalSupply + amount <= _cap,\"C-A-Token:The minted token should not be exceeded from the Capped limit\");\r\n        \r\n        _balances[owner] = _balances[owner] + amount;\r\n        _totalSupply = _totalSupply + amount;\r\n        \r\n        emit tokensMinted(true, amount);\r\n        emit Transfer(address(this),owner,amount);\r\n        \r\n        return true;\r\n    }\r\n    \r\n}",
  "sourcePath": "C:\\Users\\javaid.rauf\\Desktop\\Blockchain(BCC)\\Q3\\Truffle\\REC20_CappedAToken(Assignment_3B-1)\\contracts\\ERC20_CappedAToken.sol",
  "compiler": {
    "name": "solc",
    "version": "0.8.0+commit.c7dfd78e.Emscripten.clang"
  },
  "schemaVersion": "3.4.3",
  "updatedAt": "2021-08-24T07:01:16.238Z",
  "networkType": "ethereum",
  "devdoc": {
    "kind": "dev",
    "methods": {
      "allowance(address,address)": {
        "details": "See {IERC20-allowance}."
      },
      "approve(address,uint256)": {
        "details": "See {IERC20-approve}. Requirements: - `spender` cannot be the zero address."
      },
      "balanceOf(address)": {
        "details": "See {IERC20-balanceOf}."
      },
      "totalSupply()": {
        "details": "See {IERC20-totalSupply}."
      },
      "transfer(address,uint256)": {
        "details": "See {IERC20-transfer}. Requirements: - `recipient` cannot be the zero address. - the caller must have a balance of at least `amount`."
      },
      "transferFrom(address,address,uint256)": {
        "details": "See {IERC20-transferFrom}. Emits an {Approval} event indicating the updated allowance. This is not required by the EIP. See the note at the beginning of {ERC20}; Requirements: - `sender` and `recipient` cannot be the zero address. - `sender` must have a balance of at least `amount`. - the caller must have allowance for ``sender``'s tokens of at least `amount`."
      }
    },
    "version": 1
  },
  "userdoc": {
    "kind": "user",
    "methods": {
      "mint(uint256)": {
        "notice": "This function will allow owner to Mint more tokens and check that total supply doesnot exceeds the capped limit  Requirements: - the caller must be Owner of Contract - amount should be valid incremental value."
      }
    },
    "version": 1
  }
}